{
	"fantomwill.sol": {
		"FantomWill": {
			"abi": [
				{
					"anonymous": false,
					"inputs": [
						{
							"indexed": false,
							"internalType": "uint256",
							"name": "oldValue",
							"type": "uint256"
						},
						{
							"indexed": false,
							"internalType": "uint256",
							"name": "newValue",
							"type": "uint256"
						}
					],
					"name": "DeadlineChanged",
					"type": "event"
				},
				{
					"constant": true,
					"inputs": [],
					"name": "getdeadline",
					"outputs": [
						{
							"internalType": "uint256",
							"name": "",
							"type": "uint256"
						}
					],
					"payable": false,
					"stateMutability": "view",
					"type": "function"
				},
				{
					"constant": false,
					"inputs": [],
					"name": "setdeadline",
					"outputs": [],
					"payable": false,
					"stateMutability": "nonpayable",
					"type": "function"
				}
			],
			"devdoc": {
				"methods": {}
			},
			"evm": {
				"assembly": "    /* \"fantomwill.sol\":27:583  contract FantomWill {\r... */\n  mstore(0x40, 0x80)\n  callvalue\n    /* \"--CODEGEN--\":8:17   */\n  dup1\n    /* \"--CODEGEN--\":5:7   */\n  iszero\n  tag_1\n  jumpi\n    /* \"--CODEGEN--\":30:31   */\n  0x00\n    /* \"--CODEGEN--\":27:28   */\n  dup1\n    /* \"--CODEGEN--\":20:32   */\n  revert\n    /* \"--CODEGEN--\":5:7   */\ntag_1:\n    /* \"fantomwill.sol\":27:583  contract FantomWill {\r... */\n  pop\n  dataSize(sub_0)\n  dup1\n  dataOffset(sub_0)\n  0x00\n  codecopy\n  0x00\n  return\nstop\n\nsub_0: assembly {\n        /* \"fantomwill.sol\":27:583  contract FantomWill {\r... */\n      mstore(0x40, 0x80)\n      callvalue\n        /* \"--CODEGEN--\":8:17   */\n      dup1\n        /* \"--CODEGEN--\":5:7   */\n      iszero\n      tag_1\n      jumpi\n        /* \"--CODEGEN--\":30:31   */\n      0x00\n        /* \"--CODEGEN--\":27:28   */\n      dup1\n        /* \"--CODEGEN--\":20:32   */\n      revert\n        /* \"--CODEGEN--\":5:7   */\n    tag_1:\n        /* \"fantomwill.sol\":27:583  contract FantomWill {\r... */\n      pop\n      jumpi(tag_2, lt(calldatasize, 0x04))\n      shr(0xe0, calldataload(0x00))\n      dup1\n      0x0c2e7ea0\n      eq\n      tag_3\n      jumpi\n      dup1\n      0x1b58d357\n      eq\n      tag_4\n      jumpi\n    tag_2:\n      0x00\n      dup1\n      revert\n        /* \"fantomwill.sol\":267:448  function setdeadline() public {\r... */\n    tag_3:\n      tag_5\n      tag_6\n      jump\t// in\n    tag_5:\n      stop\n        /* \"fantomwill.sol\":497:578  function getdeadline() public view returns (uint) {\r... */\n    tag_4:\n      tag_7\n      tag_8\n      jump\t// in\n    tag_7:\n      mload(0x40)\n      dup1\n      dup3\n      dup2\n      mstore\n      0x20\n      add\n      swap2\n      pop\n      pop\n      mload(0x40)\n      dup1\n      swap2\n      sub\n      swap1\n      return\n        /* \"fantomwill.sol\":267:448  function setdeadline() public {\r... */\n    tag_6:\n        /* \"fantomwill.sol\":306:323  uint old_deadline */\n      0x00\n        /* \"fantomwill.sol\":326:331  later */\n      dup1\n      sload\n        /* \"fantomwill.sol\":306:331  uint old_deadline = later */\n      swap1\n      pop\n        /* \"fantomwill.sol\":340:349  uint date */\n      0x00\n        /* \"fantomwill.sol\":352:355  now */\n      timestamp\n        /* \"fantomwill.sol\":340:355  uint date = now */\n      swap1\n      pop\n        /* \"fantomwill.sol\":379:386  30 days */\n      0x278d00\n        /* \"fantomwill.sol\":372:376  date */\n      dup2\n        /* \"fantomwill.sol\":372:386  date + 30 days */\n      add\n        /* \"fantomwill.sol\":364:369  later */\n      0x00\n        /* \"fantomwill.sol\":364:386  later = date + 30 days */\n      dup2\n      swap1\n      sstore\n      pop\n        /* \"fantomwill.sol\":400:436  DeadlineChanged(old_deadline, later) */\n      0xb50b49938e915b0ab39e99a2d0810e190d6a377647ef06ec45b1e54b892968a6\n        /* \"fantomwill.sol\":416:428  old_deadline */\n      dup3\n        /* \"fantomwill.sol\":430:435  later */\n      sload(0x00)\n        /* \"fantomwill.sol\":400:436  DeadlineChanged(old_deadline, later) */\n      mload(0x40)\n      dup1\n      dup4\n      dup2\n      mstore\n      0x20\n      add\n      dup3\n      dup2\n      mstore\n      0x20\n      add\n      swap3\n      pop\n      pop\n      pop\n      mload(0x40)\n      dup1\n      swap2\n      sub\n      swap1\n      log1\n        /* \"fantomwill.sol\":267:448  function setdeadline() public {\r... */\n      pop\n      pop\n      jump\t// out\n        /* \"fantomwill.sol\":497:578  function getdeadline() public view returns (uint) {\r... */\n    tag_8:\n        /* \"fantomwill.sol\":541:545  uint */\n      0x00\n        /* \"fantomwill.sol\":565:570  later */\n      dup1\n      sload\n        /* \"fantomwill.sol\":558:570  return later */\n      swap1\n      pop\n        /* \"fantomwill.sol\":497:578  function getdeadline() public view returns (uint) {\r... */\n      swap1\n      jump\t// out\n\n    auxdata: 0xa265627a7a72315820df3d3d21c4a91356df7c8d399d70aa78737d54953f76189661762eefd6d4761564736f6c63430005110032\n}\n",
				"bytecode": {
					"linkReferences": {},
					"object": "608060405234801561001057600080fd5b5060f58061001f6000396000f3fe6080604052348015600f57600080fd5b506004361060325760003560e01c80630c2e7ea01460375780631b58d35714603f575b600080fd5b603d605b565b005b604560b7565b6040518082815260200191505060405180910390f35b600080549050600042905062278d0081016000819055507fb50b49938e915b0ab39e99a2d0810e190d6a377647ef06ec45b1e54b892968a682600054604051808381526020018281526020019250505060405180910390a15050565b6000805490509056fea265627a7a72315820df3d3d21c4a91356df7c8d399d70aa78737d54953f76189661762eefd6d4761564736f6c63430005110032",
					"opcodes": "PUSH1 0x80 PUSH1 0x40 MSTORE CALLVALUE DUP1 ISZERO PUSH2 0x10 JUMPI PUSH1 0x0 DUP1 REVERT JUMPDEST POP PUSH1 0xF5 DUP1 PUSH2 0x1F PUSH1 0x0 CODECOPY PUSH1 0x0 RETURN INVALID PUSH1 0x80 PUSH1 0x40 MSTORE CALLVALUE DUP1 ISZERO PUSH1 0xF JUMPI PUSH1 0x0 DUP1 REVERT JUMPDEST POP PUSH1 0x4 CALLDATASIZE LT PUSH1 0x32 JUMPI PUSH1 0x0 CALLDATALOAD PUSH1 0xE0 SHR DUP1 PUSH4 0xC2E7EA0 EQ PUSH1 0x37 JUMPI DUP1 PUSH4 0x1B58D357 EQ PUSH1 0x3F JUMPI JUMPDEST PUSH1 0x0 DUP1 REVERT JUMPDEST PUSH1 0x3D PUSH1 0x5B JUMP JUMPDEST STOP JUMPDEST PUSH1 0x45 PUSH1 0xB7 JUMP JUMPDEST PUSH1 0x40 MLOAD DUP1 DUP3 DUP2 MSTORE PUSH1 0x20 ADD SWAP2 POP POP PUSH1 0x40 MLOAD DUP1 SWAP2 SUB SWAP1 RETURN JUMPDEST PUSH1 0x0 DUP1 SLOAD SWAP1 POP PUSH1 0x0 TIMESTAMP SWAP1 POP PUSH3 0x278D00 DUP2 ADD PUSH1 0x0 DUP2 SWAP1 SSTORE POP PUSH32 0xB50B49938E915B0AB39E99A2D0810E190D6A377647EF06EC45B1E54B892968A6 DUP3 PUSH1 0x0 SLOAD PUSH1 0x40 MLOAD DUP1 DUP4 DUP2 MSTORE PUSH1 0x20 ADD DUP3 DUP2 MSTORE PUSH1 0x20 ADD SWAP3 POP POP POP PUSH1 0x40 MLOAD DUP1 SWAP2 SUB SWAP1 LOG1 POP POP JUMP JUMPDEST PUSH1 0x0 DUP1 SLOAD SWAP1 POP SWAP1 JUMP INVALID LOG2 PUSH6 0x627A7A723158 KECCAK256 0xDF RETURNDATASIZE RETURNDATASIZE 0x21 0xC4 0xA9 SGT JUMP 0xDF PUSH29 0x8D399D70AA78737D54953F76189661762EEFD6D4761564736F6C634300 SDIV GT STOP ORIGIN "
				},
				"gasEstimates": {
					"creation": {
						"codeDepositCost": "49000",
						"executionCost": "99",
						"totalCost": "49099"
					},
					"external": {
						"getdeadline()": "1013",
						"setdeadline()": "23113"
					}
				},
				"methodIdentifiers": {
					"getdeadline()": "1b58d357",
					"setdeadline()": "0c2e7ea0"
				}
			},
			"storageLayout": {
				"storage": [
					{
						"astId": 9,
						"contract": "fantomwill.sol:FantomWill",
						"label": "later",
						"offset": 0,
						"slot": "0",
						"type": "t_uint256"
					}
				],
				"types": {
					"t_uint256": {
						"encoding": "inplace",
						"label": "uint256",
						"numberOfBytes": "32"
					}
				}
			},
			"userdoc": {
				"methods": {}
			}
		}
	}
}